{
  "contractName": "TestContract",
  "abi": [
    {
      "inputs": [],
      "stateMutability": "nonpayable",
      "type": "constructor"
    },
    {
      "inputs": [],
      "name": "getOwner",
      "outputs": [
        {
          "internalType": "address",
          "name": "",
          "type": "address"
        }
      ],
      "stateMutability": "view",
      "type": "function"
    },
    {
      "inputs": [],
      "name": "getName",
      "outputs": [
        {
          "internalType": "string",
          "name": "",
          "type": "string"
        }
      ],
      "stateMutability": "view",
      "type": "function"
    },
    {
      "inputs": [
        {
          "internalType": "address",
          "name": "value",
          "type": "address"
        }
      ],
      "name": "setOwner",
      "outputs": [],
      "stateMutability": "nonpayable",
      "type": "function"
    },
    {
      "inputs": [
        {
          "internalType": "string",
          "name": "value",
          "type": "string"
        }
      ],
      "name": "setName",
      "outputs": [],
      "stateMutability": "nonpayable",
      "type": "function"
    }
  ],
  "bytecode": "0x608060405234801561001057600080fd5b50336000806101000a81548173ffffffffffffffffffffffffffffffffffffffff021916908373ffffffffffffffffffffffffffffffffffffffff1602179055506040518060400160405280600d81526020017f5465737420436f6e7472616374000000000000000000000000000000000000008152506001908051906020019061009c9291906100a2565b506101a6565b8280546100ae90610174565b90600052602060002090601f0160209004810192826100d05760008555610117565b82601f106100e957805160ff1916838001178555610117565b82800160010185558215610117579182015b828111156101165782518255916020019190600101906100fb565b5b5090506101249190610128565b5090565b5b80821115610141576000816000905550600101610129565b5090565b7f4e487b7100000000000000000000000000000000000000000000000000000000600052602260045260246000fd5b6000600282049050600182168061018c57607f821691505b602082108114156101a05761019f610145565b5b50919050565b6106c9806101b56000396000f3fe608060405234801561001057600080fd5b506004361061004c5760003560e01c806313af40351461005157806317d7de7c1461006d578063893d20e81461008b578063c47f0027146100a9575b600080fd5b61006b600480360381019061006691906103a2565b6100c5565b005b610075610160565b6040516100829190610468565b60405180910390f35b6100936101f2565b6040516100a09190610499565b60405180910390f35b6100c360048036038101906100be91906105e9565b61021b565b005b60008054906101000a900473ffffffffffffffffffffffffffffffffffffffff1673ffffffffffffffffffffffffffffffffffffffff163373ffffffffffffffffffffffffffffffffffffffff161461011d57600080fd5b806000806101000a81548173ffffffffffffffffffffffffffffffffffffffff021916908373ffffffffffffffffffffffffffffffffffffffff16021790555050565b60606001805461016f90610661565b80601f016020809104026020016040519081016040528092919081815260200182805461019b90610661565b80156101e85780601f106101bd576101008083540402835291602001916101e8565b820191906000526020600020905b8154815290600101906020018083116101cb57829003601f168201915b5050505050905090565b60008060009054906101000a900473ffffffffffffffffffffffffffffffffffffffff16905090565b60008054906101000a900473ffffffffffffffffffffffffffffffffffffffff1673ffffffffffffffffffffffffffffffffffffffff163373ffffffffffffffffffffffffffffffffffffffff161461027357600080fd5b806001908051906020019061028992919061028d565b5050565b82805461029990610661565b90600052602060002090601f0160209004810192826102bb5760008555610302565b82601f106102d457805160ff1916838001178555610302565b82800160010185558215610302579182015b828111156103015782518255916020019190600101906102e6565b5b50905061030f9190610313565b5090565b5b8082111561032c576000816000905550600101610314565b5090565b6000604051905090565b600080fd5b600080fd5b600073ffffffffffffffffffffffffffffffffffffffff82169050919050565b600061036f82610344565b9050919050565b61037f81610364565b811461038a57600080fd5b50565b60008135905061039c81610376565b92915050565b6000602082840312156103b8576103b761033a565b5b60006103c68482850161038d565b91505092915050565b600081519050919050565b600082825260208201905092915050565b60005b838110156104095780820151818401526020810190506103ee565b83811115610418576000848401525b50505050565b6000601f19601f8301169050919050565b600061043a826103cf565b61044481856103da565b93506104548185602086016103eb565b61045d8161041e565b840191505092915050565b60006020820190508181036000830152610482818461042f565b905092915050565b61049381610364565b82525050565b60006020820190506104ae600083018461048a565b92915050565b600080fd5b600080fd5b7f4e487b7100000000000000000000000000000000000000000000000000000000600052604160045260246000fd5b6104f68261041e565b810181811067ffffffffffffffff82111715610515576105146104be565b5b80604052505050565b6000610528610330565b905061053482826104ed565b919050565b600067ffffffffffffffff821115610554576105536104be565b5b61055d8261041e565b9050602081019050919050565b82818337600083830152505050565b600061058c61058784610539565b61051e565b9050828152602081018484840111156105a8576105a76104b9565b5b6105b384828561056a565b509392505050565b600082601f8301126105d0576105cf6104b4565b5b81356105e0848260208601610579565b91505092915050565b6000602082840312156105ff576105fe61033a565b5b600082013567ffffffffffffffff81111561061d5761061c61033f565b5b610629848285016105bb565b91505092915050565b7f4e487b7100000000000000000000000000000000000000000000000000000000600052602260045260246000fd5b6000600282049050600182168061067957607f821691505b6020821081141561068d5761068c610632565b5b5091905056fea2646970667358221220cd2185ddca98e9c75fb2e32c4a42e91b6e7ace342cabfa94bbd9a15535e7805a64736f6c634300080a0033",
  "immutableReferences": {},
  "source": "// SPDX-License-Identifier: MIT\npragma solidity ^0.8.10;\n\ncontract TestContract{\n\n    address _owner;\n    string _name;\n\n    constructor(){\n        _owner = msg.sender;\n        _name = \"Test Contract\";\n    }\n\n    function getOwner() public view returns(address){\n        return _owner;\n    }\n\n    function getName() public view returns(string memory){\n        return _name;\n    }\n\n    function setOwner(address value) public{\n        require(msg.sender == _owner);\n        _owner = value;\n    }\n\n    function setName(string memory value) public{\n        require((msg.sender == _owner));\n        _name = value;\n    }\n}",
  "sourcePath": "/Users/teepy/Documents/GitHub/trufflePractise/contracts/testContract.sol",
  "compiler": {
    "name": "solc",
    "version": "0.8.10+commit.fc410830.Emscripten.clang"
  },
  "schemaVersion": "3.4.4",
  "updatedAt": "2021-12-28T18:25:17.610Z",
  "devdoc": {
    "kind": "dev",
    "methods": {},
    "version": 1
  },
  "userdoc": {
    "kind": "user",
    "methods": {},
    "version": 1
  }
}